:020000040800F2
:10000000B809002031020008390200083B0200084C
:100010003D0200083F020008410200080000000005
:100020000000000000000000000000004302000883
:1000300045020008000000004702000849020008CD
:100040004B0200084B0200084B0200084B0200085C
:100050004B0200084B0200084B0200084B0200084C
:100060004B0200084B0200084B0200084B0200083C
:100070004B0200084B0200084B0200084B0200082C
:100080004B0200084B0200084B0200084B0200081C
:100090004B0200084B0200084B0200084B0200080C
:1000A0004B0200084B0200084B0200084B020008FC
:1000B000ED2400089D2500084B0200084B020008B3
:1000C0004B0200084B0200084B0200084B020008DC
:1000D0004B020008692A0008ED2A00084B020008BC
:1000E0004B0200084B0200084B0200084B020008BC
:1000F0004B0200084B0200084B0200084B020008AC
:100100004B0200084B020008C12600084B02000801
:100110004B0200084B020008592800084B02000857
:100120004B0200084B0200084B0200084B0200087B
:1001300000F002F800F06DF80AA090E8000C82448C
:100140008344AAF10107DA4501D100F062F8AFF269
:10015000090EBAE80F0013F0010F18BFFB1A43F0A5
:1001600001031847083B0000283B00000A444FF0F9
:10017000000C10F8013B13F0070408BF10F8014B06
:100180001D1108BF10F8015B641E05D010F8016B4B
:10019000641E01F8016BF9D113F0080F1EBF10F8AF
:1001A000014BAD1C0C1B09D16D1E58BF01F801CBD2
:1001B000FAD505E014F8016B01F8016B6D1EF9D555
:1001C0009142D6D37047000000230024002500266A
:1001D000103A28BF78C1FBD8520728BF30C148BFAA
:1001E0000B607047662903F06E84002070471FB5CE
:1001F00000F08EFB04000020002102F0C5FF401C2F
:1002000060600020002102F0A9FFE0601FBD10B572
:1002100010BD00F0C1FC1146FFF7E9FF02F022FE1D
:1002200000F03AFF03B4FFF7F2FF03BC02F06EFDEB
:100230000948804709480047FEE7FEE7FEE7FEE77A
:10024000FEE7FEE7FEE7FEE7FEE7FEE704480549B6
:10025000054A064B704700008D2400083101000854
:10026000B8030020B8090020B8050020B805002018
:10027000704700000FB4044910B503AA029800F0BB
:10028000E5FA10BC5DF814FB040000202DE9F05FD6
:10029000894604464FF0000ADFF824B1FB44C0F859
:1002A00020A02046E168884700287DD0252806D078
:1002B000D4E901219047206A401C2062F1E7002523
:1002C0005F462046E16888472028064607DB312E36
:1002D00005D2B81910F8200C08B10543F1E7A807BA
:1002E00001D525F00405C4F81CA00027C4F818A007
:1002F0002A2E09D0304602F002FD38B304EB8708FD
:10030000303EC8F8186019E059F8041B204604EB89
:1003100087029161E1688847012F064618D1E0699C
:10032000002820DA25F020051DE0D8F8180000EBA1
:10033000800006EB40003038C8F818002046E1681D
:100340008847064602F0DBFC0028EED1012F0AD0D8
:100350002E2E08D12046E16888477F1C0646022FD2
:1003600045F02005C4DBA069002803DA404245F0CF
:100370000105A061E80701D025F01005A6B1A6F19E
:100380004100192802D8203645F400654A46314616
:10039000204625604D46FFF725FF60B1012807D0B4
:1003A000ED1D25F0070000E007E000F1080978E7FF
:1003B00005F1040975E730467AE7206ABDE8F09F49
:1003C000263900004FF0000200B5134694469646C9
:1003D000203922BFA0E80C50A0E80C50B1F1200158
:1003E000BFF4F7AF090728BFA0E80C5048BF0CC006
:1003F0005DF804EB890028BF40F8042B08BF704764
:1004000048BF20F8022B11F0804F18BF00F8012BD5
:100410007047704770477047704710B500F07CFA1E
:10042000006810BD10B5044600F076FA046010BDF7
:1004300070472DE9FF4F0C461E464FF0FF378BB03B
:10044000D2E90001DDF860800A908A46C1F30A55BE
:1004500005B93D46002108464FF00000BAF1000FF3
:1004600000F4400005DA00EB80004FF4400101EA9F
:1004700050004FEA9059B9F1010F00DDB9460A98D2
:1004800050EA4A000ED044F61050A5F2FF3545431D
:100490002F14B8F1000F1ED07542291E1EDDC9F1C0
:1004A00000021CE0B8F1010F4FF0000001D0302134
:1004B00003E0F24305E02154401CB042FBDB304630
:1004C0000022002121540B99C1F80880C1E90020C5
:1004D0000FB0BDE8F08FBD1B6D1CDEE74A4600DAA9
:1004E000694206A800F0E2FA06AB93E8070003AB06
:1004F00083E8070050460A9901F05BF88DE8070091
:10050000A0F500501F3800900398002D09DD42F23D
:100510001F014A46084403A90390684601F0E5FA22
:1005200008E0A0F500504A461F3803A9039068462A
:1005300001F003FB8DE807000004000C03D04FF02E
:10054000FF30410800E01046B8F1000F03D0002250
:10055000009215461EE0751E05D400F0E1F9303218
:1005600062556D1EF9D5B3460122084302D0002220
:100570007F1C04E02078302801D100227F1E002A51
:10058000099786D01DE0112D07DA00F0C9F9303245
:1005900062556D1C50EA0102F5D1084302D0009863
:1005A000C8B10EE00021681E05E0235C625C635464
:1005B0002254401E491C8142F7DBAB46A81B401E5B
:1005C0000990002004F80B000B98099AC0F80880E5
:1005D000C0E9002B7CE711264FF0000859E72DE910
:1005E000F04F88460446D21D22F0070191B0D1E9B0
:1005F0000001CDE90A0102F007FB02460B98C00F8B
:1006000001D02D2007E02068810701D52B2002E0D2
:10061000202101EAC000032A099001D0072A05DB46
:1006200003464146204600F0E1F90BE120788006C0
:1006300001D5E06900E00620B8F1650F814606D0DB
:10064000B8F1660F18D0B8F1670F70D131E0002013
:10065000B9F1110F009001DB112301E009F1010351
:100660000AAA01A90CA8FFF7E4FEDDE90C70002638
:1006700009F10105834647E001204B4600904FF009
:1006800000470AAA01A90CA8FFF7D3FEDDE90DB0C7
:100690000C995D46002610B909F101000D18B9EB5F
:1006A000050003D4C0F1FF3609F10105A5EB0900EF
:1006B0002BE0B9F1010F01DA4FF001090020B9F187
:1006C000110F0090484601DD112300E003460AAAFD
:1006D00001A90CA8FFF7ADFEDDE90C704D46002620
:1006E0008346207800070AD4AB4500DA5D4601A8AE
:1006F000012D04DD411911F8011C302907D04F45A7
:1007000002DA17F1040F04DA012082460FE06D1EB1
:10071000EEE7002F02DCED1B3E4403E0781CA8420C
:1007200000DD7D1CB81B00F1010A4FF00047207866
:10073000000703D4AA4501DB4FF0FF3A0021B7F1CF
:10074000004F0DF143088DF8431024D002202B23D5
:10075000002F01DA7F422D230A21021EA0F10100A1
:1007600000DC5FB197FBF1FC97FBF1F201FB1C7C15
:1007700017460CF1300C08F801CDEEE7A8F10100A6
:1007800003702188090501D5452100E06521A0F10C
:10079000010800F8011C09980FA9A1EB0807FF1D2B
:1007A00000B10120411901EBEA70A1693844081A2F
:1007B000401EA0612078C00602D42046AFF300801E
:1007C000099828B1D4E901219047206A401C206291
:1007D0002078C00622D52046AFF300801EE0002E10
:1007E00004DBB34502DD01A8805D00E03020D4E9E0
:1007F00001219047206A401C2062761CAAF101006A
:100800005FEA000A0AD100F083F8C0680168405C22
:10081000D4E901219047206A401C2062281EA5F1DE
:100820000105DCDC07E0D4E9012118F8010B904751
:10083000206A401C2062381EA7F10107F3DC204625
:10084000AFF30080032011B043E60000074B70B502
:100850000D467B4400F0B7F80446284600F094F9B2
:1008600010B14FF0FF3070BD204670BD272500004D
:100870000FB4002300B589B00CA900910B99CB608F
:10088000204B7B440693204B7B44079304236FF05B
:100890000042CDE901321D4A7A446B460892024675
:1008A000002003F072F909B05DF814FB70B506463C
:1008B0004FF0FF3015460C46324686B00091CDE928
:1008C000010169460020049004A8FFF7D1FF034608
:1008D0000498211825B108B10A4600E022462A6092
:1008E00000280DD0002B02DD0098884208D0324647
:1008F000081B69460094CDE9010404A8FFF7B8FF7E
:1009000006B070BDE7010000FF0100000F0100000C
:1009100000487047740300200048704754030020CB
:1009200030B5B0F10A024FEA900E71F100034EEAC1
:10093000817EB0EB0E0061EB91014FEA101E4EEA92
:10094000017E10EB0E0041EB11114FEA102E4EEA22
:10095000016E10EB0E0041EB11214FEA104E4EEAF2
:10096000014E10EB0E0041EB1141401841F1000126
:100970004FEAD00040EA41704FEAD10110EB800508
:100980004FEA810444EA907444EB01046D1944EB8E
:100990000404521BA3414FF0000348BF0A3200D5A4
:1009A00030BD401C41F1000130BD10B5044600F0DF
:1009B00019F90068005D00F0010010BD01694A1CD2
:1009C00002610878704700B58FB0CDE90131002190
:1009D000059105497944CDE9031011466846FFF7B2
:1009E00055FC0FB000BD0000E5FFFFFF2DE9F04111
:1009F0001F46044603260168072A01F4006004DB51
:100A000008B116A505E016A503E008B115A500E09C
:100A100015A521F010002060A069C01EA0610FB1D3
:100A2000401EA0612046AFF300804FB1D4E9012100
:100A300038469047206A401C2062C01C206206E0B5
:100A4000206AFAE7D4E9012115F8010B9047761ED8
:100A5000F8D22046AFF30080BDE8F0814E414E0051
:100A60006E616E00494E4600696E6600426842B192
:100A7000016811F8013B23B1521EC0E9001218466B
:100A800070470121C160881E704742685AB1C3682F
:100A9000016843B983688B4205D0491E521CC0E9E6
:100AA0000012002070474FF0FF3070472DE9F047EB
:100AB000814616468AB0334878440DC88DE80D004B
:100AC00030487844801C03AC0DC884E80D0041F622
:100AD0009B300844372190FBF1F290FBF1F5A5F132
:100AE000800501FB12041B3C02D56442012000E09A
:100AF0000020DFF890A080460027FA44AAF1BE0A41
:100B00000DE0E00709D03246684607EB47010AEBE3
:100B1000810101F012F88DE8070064107F1C002CA1
:100B2000EFD1184F7F44AC3F18E0E80714D007EB33
:100B300004100DF1180A90E80E008AE80E00C06853
:100B4000F04201D198190890324606A903A800F096
:100B5000F4FF03AB83E807006D10641C002DE4D1A3
:100B600032466946B8F1000F03A802D000F0BDFF7D
:100B700001E000F0E2FFC9E90001C9F808200AB06D
:100B8000BDE8F08798310000007B00F080007047DE
:100B900000487047540300207546FFF7F9FFAE4642
:100BA00005006946534620F00700854618B020B579
:100BB000FFF74CFBBDE820404FF000064FF0000768
:100BC0004FF000084FF0000B21F00701AC46ACE8F5
:100BD000C009ACE8C009ACE8C009ACE8C0098D4662
:100BE0007047000010B5FFF793FE001D10BD00BF59
:100BF000992500002DE9FF4F064689B00878FF28A7
:100C000006D0491C2D2805D000244FF0000908E02B
:100C100000200CE00124F8E709EB8903491C00EBF4
:100C200043090878FF28F7D114B1C9F100008146C3
:100C3000107800252C46AA4629462D2801D02B28BD
:100C400004D1521C2D2813D0002082468B461078E8
:100C5000FF280FD04FF0000C0A21521CA5FB017891
:100C600004FB018105FB0C11C5194BEB0104EEE7F8
:100C70000120EAE7002108464FF00000BAF1000F1A
:100C800002D000EB80004008C0F38158B8F1010F9A
:100C900001DD4FF0FF380C9809EB000755EA04001E
:100CA00009D04FF0020917F5FA7F0BDA4FEACA7044
:100CB000C6E900B012E04FEACA70C6E900B00DB054
:100CC000BDE8F08FB7F5FA7F0DDDF0487844D0E944
:100CD0000010C6E9001040EACA707060FFF71CFE01
:100CE000C0F80090EBE7391E02DAC8F1000200E01C
:100CF000424600DA794206A8FFF7D8FE06AB93E831
:100D0000070003AB83E8070044F23E005BEA0401FE
:100D10000090584604D144F21E012C465D460091D5
:100D2000210C0904014306D10099240444EA154426
:100D30002D041039009104F07F41014306D1009940
:100D4000240244EA15642D020839009104F0704130
:100D5000014306D10099240144EA15742D01091FAD
:100D6000009104F04041014306D10099A40044EAF7
:100D70009574AD00891E009104F00041084304D130
:100D800000986D196441401E009042466846002F4D
:100D9000CDE9014503A902DD00F0E3FE01E000F02A
:100DA000B8FEBAF1000F04460D4601D084F00044AD
:100DB00040F2FF7724F00040284303D0C4F30A50E8
:100DC000B84212D1FFF7A8FDC0F80090C4F30A5052
:100DD000B8420AD1AE487844D0E90010C6E9001004
:100DE00004F000410843706069E7C6E9005466E713
:100DF0002DE9FF4F1F464FF0000A4FF0FF384546E0
:100E000091B0D7E90146CDF83CA0FFF781FDC0685D
:100E10000168405C1090B96912986D1C8847396A66
:100E2000814688470028F6D1B9F1FF3F0AD0002E4D
:100E300024F4D06411DDB9F12B0F08D0B9F12D0FD6
:100E40000BD102E0404615B03AE744F48064B9693A
:100E500012986D1C8847761E8146600504A901D54D
:100E60002D2000E02B20002E01F1010B0DF13008A8
:100E70008DF810003FDDB9F1690F08D0B9F1490FC5
:100E800005D0B9F16E0F02D0B9F14E0F1CD13B461F
:100E900001A8009580E85002DDE912126FF002000F
:100EA00002F077FEC11CCED10EE0B96912986D1C1C
:100EB000884781461398761E44F4007405600F98A5
:100EC000401C002E0F9016DDB9F1300FEDD0B9F1B6
:100ED000780F02D0B9F1580F0DD10F9801280AD11F
:100EE0003B46CDE90054DDE91212001F029602F0E4
:100EF0004EFEC11CA7D1109989453ED144F0800413
:100F000006E01399681CAAF1010A44F40074086011
:100F1000B9696D1C1298761E884730288146F0D03A
:100F20002BE01099894505D1200603D4761E44F0A4
:100F3000800418E0484601F0E2FE08B3761E0DF189
:100F400023018B4544F4007408D2A9F130000BF85A
:100F5000010B200607D5AAF1010003E0200602D408
:100F60000AF101008246A00502D51399681C0860A9
:100F7000B96912986D1C88478146002ED1DC53E078
:100F8000002E51DDB9F1650F02D0B9F1450F4BD1FB
:100F9000A00549D5B9696D1C1298761E24F44074D9
:100FA0008847002E81460CDD2B2804D0B9F12D0F87
:100FB00007D144F48074B96912986D1C8847761E75
:100FC0008146E00501D52D2100E02B2108F8011B09
:100FD000CDF8008021E0761E0DF13901884544F4FA
:100FE00000740CD2A9F1300010F0FF0088F8000066
:100FF00002D10099884509D908F1010806E0E00509
:1010000001D5244801E042F20F708246B969129876
:101010006D1C8847814613980560002E04DD484604
:1010200001F06DFE0028D6D1F96912988847FF209B
:1010300053468BF8000088F8000000200A900B90BF
:1010400004AA0CA90AA8FFF7D5FDA00502D46FF0E9
:101050000100F8E614F0240F0AD0E00714D1386834
:10106000DDE90A12031D3B600068C0E900120BE0D5
:101070000AA9684601F0ECFDE00705D13868009A3E
:10108000011D3960006802602846DCE6BC2F0000C4
:10109000B22E0000F1D8FFFF0446AFF300802046D7
:1010A000FFF7C0F84FF0013C50F8042B51F8043B17
:1010B0009A4221D1A2EB0C03934313EACC1317D12C
:1010C00050F8042B51F8043B9A4215D1A2EB0C03C3
:1010D000934313EACC130BD150F8042B51F8043B83
:1010E0009A4209D1A2EB0C03934313EACC13DBD051
:1010F0004FF00000704700BFD01A01BAB1FA81F179
:1011000001F0180122FA01F0CB40C1F12001DBB25D
:10111000C0B2C01A2CFA01F3D11A914311EAC311DB
:10112000E6D170472DE9FF4F1F464FF03C0987B0CD
:101130004FF00042DDE9141001F10108DDF858A07C
:1011400002EA40500390002004908346054604467E
:101150000590B969461E08988847AAF1010A0290CD
:10116000BAF1000F37DD02982E2815D0102100F0BB
:1011700012FA00282ADB4FF0010B0499014316D024
:10118000B9F1000F0BDB4A46C11700F0F1F9054336
:101190000C43A9F1040905E00120059007E008B11E
:1011A00045F0010501200490059800B9361DB96984
:1011B000089808F101088847BBF1000FAAF1010A5D
:1011C0000290CDD00999C1F80080C9E70298702833
:1011D00008D0502806D0F96908988847BBF1000F5D
:1011E00014D04FE0002002900120BBF1000F0490CA
:1011F00009D0B969089808F101088847AAF10109DE
:10120000B9F1000F07DCF969089888476FF0010011
:101210000BB0BDE8F08F2B2804D02D280CD14FF057
:10122000FF300490B969089808F101088847A9F1CE
:101230000109B9F1000FE6DD411CE4D00A2100F0FC
:10124000AAF90028DFDB029908F1010801EB81010E
:1012500000EB41000290B969089888470A2100F024
:101260009AF9099AA9F10109B9F1000FC2F80080B1
:1012700001DD0028E7DAF96908988847049902989F
:1012800000FB016655EA040004D004F04041090067
:1012900002D006E0039898E0A40044EA9574AD00FB
:1012A000B61E04F00041080002D16D196441761E9B
:1012B000159810F0240F03D04FF00B095C4803E0A1
:1012C0004FF028096FF07D008246564507DAAAEBF9
:1012D00006018944B9F1410F01DD4FF041090120B8
:1012E0000021A9F1010200F043F9024628400B4613
:1012F0002140084301D0012100E00021501E02914D
:1013000043F1FF3128402140084301D0012000E093
:1013100000200299834651EA0B014FD00021084674
:101320004FF00000039900F4400039B100EB800059
:101330004FF4400100EBD07001EA600080150128F5
:1013400002DD4FF0FF3000E013D0401C36D0029891
:1013500060B3BBF1000F0CD14A460120002100F020
:1013600007F928402140084301D0012000E0002077
:10137000E0B101204A46002100F0FAF80346401986
:101380000A4661412D1A8C4111D3B9F1400F09DD94
:10139000159810F0240F02D0AAF1340603E0AAF148
:1013A000170600E0761C00254FF0004406E05B1EA7
:1013B00042F1FF3220EA030521EA0204CAF10100EA
:1013C000B04206DA1B4903980843019000200090C0
:1013D0000EE0039AC4F3D321E80A0A43164940EA0F
:1013E00044500A433146CDE90002684601F07CFCD6
:1013F000159810F0240F0BD01598C00715D1386838
:10140000DDE90012031D3B600068C0E900120CE03A
:1014100002A8694601F01CFC1598C00705D1386880
:10142000029A011D3960006802604046F0E6000043
:1014300002FCFFFF0000F07F0000F03F2DE9FF4FAE
:1014400092461D4685B04FF00041DDE9124BDDE9C3
:1014500014727F1E01EA4B50414940F0FF4940EAB7
:101460000108002122F020004928049102D04E28D2
:1014700028D04CE03BA0012607C88DE80700A969E9
:101480000698641C88477F1E014606D41DF8060096
:1014900018B121F0200181420BD0E96906988847F4
:1014A000032E34D0082E32D06FF0010009B0BDE811
:1014B000F08F761C032E01D0082EE0D1601CCAF8F4
:1014C0000000DCE7A9690698641C88477F1E2AD4BF
:1014D00020F02000412826D1A9690698641C88477D
:1014E0007F1E20D420F020004E281CD1A969069828
:1014F000641C88477F1E48F4002849F48009CAF814
:10150000004001D4282806D0E969069888475FEA98
:10151000CB7012D022E0A9690698641C88477F1E10
:1015200001D4002803DAE96906988847BCE729282E
:10153000F1D1641CCAF80040E9E71BF0240F07D082
:1015400028680499031D2B600068C0E9001805E0B5
:101550002868021D2A600068C0F800902046A5E7B0
:101560000000F07F494E46494E49545900000000A2
:10157000B2F120030AD5C2F1200301FA02F120FAE8
:1015800003F300FA02F041EA0301704700FA03F1A5
:101590004FF0000070473A2800D2303820F0200287
:1015A000412A01D3A2F13700884201D34FF0FF3026
:1015B00070475FEA400C08BF91F0000F4FEA8C23A0
:1015C0004FEAC12243EA51514FEA1C5018BF00F5BF
:1015D000F0404FEA300018BF41F000415FEA6C5C18
:1015E00000F02980BCF1FF3F08BF40F08040704709
:1015F000130C06BF12044FF0100C4FF0000C130E2A
:1016000004BF12020CF1080C130F04BF12010CF1FD
:10161000040C930F04BF92000CF1020CD30F04BF13
:1016200052000CF1010C11464FF00002A0F11F0016
:10163000A0EB0C00704711F0004F08BF704731F06D
:1016400000413FF4D5AF0B0C06BF09044FF0100C5E
:101650004FF0000C0B0E04BF09020CF1080C0B0F2D
:1016600004BF09010CF1040C8B0F04BF89000CF1BD
:10167000020CCB0F04BF49000CF1010CCCF120038C
:10168000A0EB0C0022FA03F302FA0CF241EA030188
:1016900000F10100704720F07F4C80EA030023F046
:1016A0007F47ACEB070303F57C5300F0004003F1E8
:1016B000FF032DE980494FEA154B09B44FEA144363
:1016C00025EA0B4E24EA03480FF2042606EB132703
:1016D00049083E785FEA320203FB0667C7F5000758
:1016E00007FB06F64FEA54374FEAD64606F10206E4
:1016F00007FB066CCCF1005C4FEA1C472CEA074C58
:1017000007FB06F40CFB06F504EB15464FEA9616AC
:1017100034BF00204FF000404FEAD13706FB07FCF2
:101720004FEA1C4C0CFB0BF7D21B03FB0CF761EBD5
:1017300007010CFB0EF7B0EB074072EB17420CFBF6
:1017400008F734BFA2EB0742B2EB074261EB174147
:101750004FEA0C444FEA910706FB07FC4FEA1C4C8A
:101760000CFB0BF7B0EBC74072EB573203FB0CF7E7
:1017700034BFA2EBC742B2EBC74261EB57310CFB5F
:101780000EF7B0EBC70072EB57720CFB08F734BFD3
:10179000A2EBC702B2EBC70261EB5771039F4FEA9E
:1017A000816141EA921104EBCC044FEAD1374FEA50
:1017B000826206FB07FC42EA90124FEA80604FEA21
:1017C0001C4C0CFB0BF7D21B03FB0CF761EB070166
:1017D0000CFB0EF7B0EB074072EB17420CFB08F75F
:1017E00034BFA2EB0742B2EB074261EB17414FEA6D
:1017F0008C554FEA910704EB9C2406FB07FC4FEA4B
:101800001C4C0CFB0BF7B0EBC74072EB573203FBE1
:101810000CF734BFA2EBC742B2EBC74261EB5731C2
:101820000CFB0EF7B0EBC70072EB57720CFB08F71E
:1018300034BFA2EBC702B2EBC70261EB577115EBE5
:101840004C254FEA816141EA92114FEA82624FEAE8
:10185000D13742EA901206FB07FC44F100044FEA3C
:1018600080604FEA1C4C0CFB0BF7D21B03FB0CF700
:1018700061EB07010CFB0EF7B0EB074072EB174270
:101880000CFB08F734BFA2EB0742B2EB074261EB57
:10189000174115EB1C154FEA813141EA92414FEA9D
:1018A000823242EA90424FEA80304FEA0C7644F1AD
:1018B000000448EA03434EEA0B484FF0000EB2EB37
:1018C000080C71EB030724BF624639464EEB0E0E3F
:1018D0004FF0000B0018524149414BEB0B0BB2EBA0
:1018E000080C71EB03077BF1000B24BF62463946FD
:1018F0004EEB0E0E4FF0000B0018524149414BEBDE
:101900000B0BB2EB080C71EB03077BF1000B24BF50
:10191000624639464EEB0E0E51EA020718BF46F0FA
:10192000010616EB0E7655F1000254F1000103D5C5
:10193000BDE88901BDE80088BDE88901BDE800482F
:10194000B619524141EB0101A3F1010370478080B8
:101950007F7E7D7C7B7A7978777676757473727109
:1019600071706F6E6E6D6C6C6B6A6A6968686766C1
:1019700066656464636362616160605F5F5E5E5D53
:101980005D5C5C5B5B5A5A595958585757565655C7
:1019900055555454535352525251515050504F4F29
:1019A0004F4E4E4D4D4D4C4C4C4B4B4B4A4A4A4979
:1019B00049494848484747474746464645454544BC
:1019C0004444444343434342424242414141000074
:1019D00046EA0646A3F570534FEA164646EA4256D3
:1019E0004FEAD22242EA415210B54FEAD121A3F187
:1019F000010300F017F820F0004000F1010C00F0A6
:101A0000004701EB00501146BCF5006F40EA0700AB
:101A100000D210BD02484FF0000140EA070010BD9F
:101A20000000F07F002B26D4770021D01CB54FEAB0
:101A3000370703B44FF010004FF010014FF00000D3
:101A40000FBCBDE810400BF1010BBBF1010F08BF4B
:101A50005FEA170722BF12F1010211F101014FF0F5
:101A6000004143F1000300F0004043EA00007047EA
:101A7000F9D35708DAE746EA064613F1400F4FEA72
:101A800016461FDD13F1200FDFBF16430A46002163
:101A900020335B42C8D0C3F1200746EA064602FA6B
:101AA00007F74FEA164646EA0706C3F1200722FA6F
:101AB00003F201FA07F721FA03F14FF0000342EABB
:101AC0000702B1E746EA020646EA06464FEA16462C
:101AD00046EA0106BCBF46EA0646360C4FF0000354
:101AE0004FF000024FF000019EE72DE9C0489346F9
:101AF00030B491E8380007C831EA400C48BF34EAF6
:101B0000430C03D5FFF7C7FDFFF78CFFF0BCBDE822
:101B100000882DE9C048934630B491E8380007C8E2
:101B200031EA400C48BF34EA430C03D5FFF7B3FD5C
:101B3000FFF74EFFF0BCBDE800882DE9C048934692
:101B400030B491E8380007C810F0804F08BF13F098
:101B5000804F03D100F019F8FFF764FFF0BCBDE837
:101B600000882DE9C048934630B491E8380007C892
:101B700010F0804F08BF13F0804F03D100F005F83C
:101B8000FFF726FFF0BCBDE8008820F07F4780EA21
:101B9000030023F07F4C07EB0C03A3F57C5300F00C
:101BA0000040A3F1FE0392F0000F00F0B38095F027
:101BB000000F00F077802DE901494FEA11404FEA0C
:101BC000144621EA004800FB06FC24EA064708FB0D
:101BD00006F607FB08F800FB07F718EB06484CEB86
:101BE000164C4FEA124B18EB07484FEA15464CEBE0
:101BF000174022EA0B4E0BFB06FC25EA06470EFBBC
:101C000006F607FB0EFE0BFB07F71EEB064E4CEB32
:101C1000164C4FF000061EEB074E4CEB174B18EB23
:101C20000B0840F1000018EB0E0B58EB000840F1D8
:101C300000008F1A4FF000013CBFC943661B14BF60
:101C4000B5EB040C00213CBFC943F61B4FEA174417
:101C50004EEA8E0E27EA04454FEA1C4704FB076252
:101C60002CEA074C05FB07F70CFB05F604FB0CFC04
:101C700016EB074642EB174216EB0C4642EB1C42B2
:101C80001BEB060658EB0202414146EA9E0601D5CF
:101C9000BDE80189B619524141EB0101A3F10103ED
:101CA000BDE801894FEA14454FEA114724EA054689
:101CB00021EA074C05FB07F406FB07F70CFB06F1CE
:101CC00005FB0CFC11EB074144EB17444FEA1247AC
:101CD00011EB0C4144EB1C4422EA074C05FB07F2D4
:101CE00006FB07F70CFB06F605FB0CFC16EB07469C
:101CF00042EB174216EB0C4642EB1C456A1854F1B6
:101D0000000148BF7047B619524141EB0101A3F1F0
:101D10000103704795F0000F37D04FEA11424FEAA8
:101D2000144721EA024624EA074C02FB07F106FBAE
:101D300007F70CFB06F402FB0CFC14EB074441EB29
:101D400017414FEA154714EB0C4441EB1C4125EABF
:101D5000074C02FB07F506FB07F70CFB06F602FB38
:101D60000CFC16EB074645EB174516EB0C4645EB0E
:101D70001C42121951F1000148BF7047B619524177
:101D800041EB0101A3F1010370474FEA14454FEA0B
:101D9000114724EA054621EA074C05FB07F106FB3B
:101DA00007F70CFB06F24FF0000605FB0CFC12EBEC
:101DB000074241EB174112EB0C4251EB1C4148BF6B
:101DC0007047921841EB0101A3F101037047000035
:101DD0000A48806940F004000849886108480068A2
:101DE00020F07040064908600846006840F0405006
:101DF000086000200349086070470000001002409E
:101E000004080140BC01214200B5002009490860D6
:101E100009490870A220487000F07EF800200649A9
:101E2000488006490880044988800449091D0880C3
:101E300000BD0000BC0121420A000020340800401F
:101E40000A48806940F0080008498861084800682D
:101E500020F47000064908600846006840F440100D
:101E6000086000200349086070470000001002402D
:101E7000040C0140B4812142002007490860012080
:101E80000649C1F8A8010020034908310860012073
:101E90000249C1F8B0017047A4812142008021426B
:101EA00000200749086001200649C1F8A80104493B
:101EB0000831086000200349C1F8B00170470000F4
:101EC000A4812142008021420120074908600020AE
:101ED0000649C1F8A80104490831086001200349F6
:101EE000C1F8B00170470000A48121420080214266
:101EF00001200749086000200649C1F8A801012017
:101F000003490831086000200249C1F8B001704758
:101F1000A481214200802142002006490860064930
:101F2000C1F8A8010349083108600349C1F8B001AC
:101F300070470000A48121420080214201464906E9
:101F4000084A926942F00102064B9A61064A5268B9
:101F500022F0E062044B5A601A4652680A435A6003
:101F600070470000001002400000014010B5022040
:101F7000FFF7E4FF3F48806940F004003D49886175
:101F80000846806940F0080088610846806940F092
:101F9000100088610846806940F02000886136485A
:101FA000006820F47060344908600846006840F416
:101FB0004070086031480068C0F30B002F4908608A
:101FC000084600682E4908432C490860081D00682F
:101FD0002C4908402949091D0860084600682A491B
:101FE00008432649091D0860284800682849084018
:101FF00026490860084600682649084323490860C6
:102000002548006820F07F402349086008460068A2
:1020100040F04C5008600846406820F0FF004860DF
:102020000846406840F03300486001201B490860C2
:10203000091F086019490C390860091F0860184910
:102040000860091D0860091D0860091D0860154920
:10205000086015490860091D0860091D0860091D10
:102060000860091D08601049243108600F49C1F853
:10207000B80110BD001002400014014000080140EA
:1020800000303333F0FF0FF003003003000C014049
:10209000000FF0FF33300300001001409081214217
:1020A000980122428881224290012142000021426F
:1020B00010B50146002000BF31E001F00102A2B9D5
:1020C00048B90022174B53F82030174C04EB830318
:1020D000C3F880211DE00022124B53F82030134C2E
:1020E00004EB8303C3F8802113E048B901220D4BB0
:1020F00053F820300C4C04EB8303C3F8802108E034
:102100000122084B53F82030084C04EB8303C3F83A
:1021100080210A4601EBD273C3F34701401C082813
:10212000CBDB10BD140000200080224200002142C1
:1021300000B5002015490861C860142048610020DE
:102140008861C8610846006840F0010008600846E0
:1021500040680F4908400D494860084600680D492D
:1021600008400A4908600846006820F4802008609A
:102170000846406820F4FE00486000208860002186
:102180004FF0006000F058F800BD00000010024061
:102190000000FFF8FFFFF6FE2DE9F04107468846F4
:1021A00014461D46284600F033F8C5F1040007FA2E
:1021B00000F60F20284100EA0800064306F00F064B
:1021C000E21704EBD2625211920002F1E022D2F83F
:1021D00000212146E31704EBD3635B11A4EB431CFE
:1021E000012303FA0CF31A432046E31704EBD363ED
:1021F0005B119B0003F1E023C3F800210348005D5D
:1022000040EA061001490855BDE8F08100E400E00D
:102210000146072323EA01021202054B18684FF614
:10222000FF031840034B18431043014B18607047DD
:102230000CED00E00000FA05024A0A400243024B9E
:102240001A60704780FFFF1F08ED00E010B52E48B0
:10225000C06940F008002C49C8610846806940F018
:10226000040088612948006820F0F00027490860D0
:102270000846006840F08000086024480C30006880
:1022800040F0020021490C31086042F210702049F0
:1022900008804720091F08801D481438008840F432
:1022A00080701B49143908800846008840F440506B
:1022B000088008460088088015480C3800881449B2
:1022C0000C3908800846008840F01000088010484B
:1022D0002038008840F004000D4920390880084665
:1022E000008840F00100088009482C38008840F040
:1022F000010007492C3908800223322203210120E2
:10230000FFF74AFF10BD0000001002400008014026
:102310002C0C004010B500F001F810BD0CB50020E9
:10232000019000903348006840F4803031490860E3
:1023300000BF3048006800F4003000900198401C55
:102340000190009818B90198B0F5A06FF1D1294813
:10235000006800F4003010B10120009001E000207E
:1023600000900098012843D12348006840F01000F5
:10237000214908600846006820F00300086008460C
:10238000006840F0020008601A4840681949486037
:102390000846406848600846406840F480604860ED
:1023A0000846406820F47C1048600846406840F4C5
:1023B000E81048600846006840F08070086000BF80
:1023C0000C48006800F000700028F9D00948406807
:1023D00020F00300074948600846406840F00200CA
:1023E000486000BF0348406800F00C000828F9D19D
:1023F0000CBD0000001002400020024030B5044631
:102400000025FFF795FE1F48006840F480301D4905
:10241000086000BF1B480068400C0028FAD04FF449
:10242000806018494860A01EC4B20846406840EA6F
:10243000844048600846406840F480304860124854
:10244000006840F03200104908600E48006840F013
:1024500080700C49086000BF0A480068400E0028E0
:10246000FAD00848406840F002000649486005E09C
:1024700004484068C0F3870505F00305022DF7D135
:1024800030BD0000001002400020024010B513488B
:10249000006840F001001149086008464068104992
:1024A00008400E494860084600680E4908400B493C
:1024B00008600846006820F48020086008464068EC
:1024C00020F4FE0048604FF41F008860FFF722FFF1
:1024D0004FF000600449086010BD00000010024089
:1024E0000000FFF8FFFFF6FE08ED00E04FF080412E
:1024F000088A2849098801F40041002945D100F0E3
:102500000101B9B123490988C1F30D0143F6FF72F6
:1025100091420AD11F49098841F400411D4A1180A6
:102520004FF6FF711C4A118004E01A490988491CC2
:10253000184A118000F0020139B31649098801F4E4
:10254000804179B94FF48041124A11800021124A2A
:1025500011804FF0804291841146098C41F00201B4
:10256000118412E00B49098841F40041094A1180A5
:102570004FF08041898E084A11804FF08041098CCC
:1025800021F002014FF08042118400214FF080427F
:1025900011827047B6010020B401002010B52D480B
:1025A000008800F0010000284CD0002432E0042C08
:1025B00017DA29480078844209D10120274951F8C7
:1025C0002410274A02EB8101C1F8800120E000209D
:1025D000224951F82410224A02EB8101C1F88001FE
:1025E00016E01D480078844209D101201B4951F8AA
:1025F00024101C4A02EB8101C1F8800108E0002090
:10260000164951F82410174A02EB8101C1F88001E4
:10261000601CC4B2082CCADB13490978134A02EBC8
:1026200041110D4A127811F82200FFF741FD0A49C5
:102630000978481CC11700EB5171C910A0EBC1010A
:10264000054A11700348008820F001000149088004
:1026500010BD000010040040C10100203400002023
:1026600000002242008021420A0000205400002085
:1026700070B505460C461048C06940F002000E498E
:10268000C8610E480580001F04800C48203800886F
:1026900040F0010009492039088008482C3800889A
:1026A00040F0010005492C39088002231D22032136
:1026B0000120FFF771FD70BD001002402C040040A6
:1026C0005F49088800F00101F9B15E49097801F01D
:1026D0008001D1B15B49097821F01001594A11708C
:1026E0001146097801F00F0121B91146097841F02E
:1026F000400111705349097801F00F010E2905DAE4
:1027000050490978491C4F4A11700AE04D4909782F
:1027100021F080014B4A11701146097801F0F00157
:10272000117000F00401002913D04749096889B1EC
:1027300043491031098841F02001414A103211808B
:102740000021121D11803F49097841F010013D4AD6
:10275000117070E03A49283109883C4A11803849A3
:102760001031098821F02001354A10321180354995
:10277000097801F01001002957D03249097801F099
:102780008001E1B331490988B1F5967F0ADD2F490F
:102790000988B1F5487F05DA2D49096849002C4AB6
:1027A000116042E029490988B1F5AF6F0FDD274973
:1027B0000988B1F5E16F0ADA254909684900244A18
:1027C00011601146096841F0010111602DE01F49B7
:1027D000098840F69802914227DD1C49098840F695
:1027E0002822914221DA1B490978491C194A1170A3
:1027F0001449097801F0F001124A117015E0FFE761
:102800001249098841F2680291420EDD0F49098898
:1028100041F25C22914208DA0A49097841F08001CC
:10282000084A117000210B4A11700649097821F0FD
:102830001001044A11700021014A11807047000004
:10284000100C0040B801002004012142BA01002010
:10285000BC010020C00100200B48008A00F00100EC
:1028600080B10A48008840F40040084908800648C2
:10287000008A20F00100044908820846008820F000
:102880000100088070470000001000401000002088
:1028900070B505460C460D48C06940F010000B4964
:1028A000C8610B4885850485808940F0010008498E
:1028B00088810846008840F0010008800223362203
:1028C00003210120FFF768FC70BD000000100240EA
:1028D000001000401748806940F0080015498861E1
:1028E0001548006820F07F401349086008460068DA
:1028F00040F04C500860081D00686FF31300091D7C
:102900000860084600680D4908430B49091D086026
:1029100001200B4908600B49C1F8A40100200849B7
:10292000083108600120091D08600020091D0860A9
:102930007047000000100240000C014033330300D8
:10294000A08121420080214270B505460C461F48F7
:10295000C06940F001001D49C8610846806940F027
:10296000040088611A48006820F00F0018490860C8
:102970000846006840F004000860C80485850485A6
:10298000008B40F00100C90408830846008C20F049
:10299000020008840846008C40F0010008840846C4
:1029A000808940F0020088810846808940F001005B
:1029B00088810846008840F00100088002231C221C
:1029C00000211846FFF7E8FB70BD00000010024030
:1029D00000080140214AD26942F004021F4BDA612B
:1029E0001F4A126822F07F421D4B1A601A46126875
:1029F00042F03B421A601B4A1080121F1180194A94
:102A0000143A128842F06002164B143B1A801A46A0
:102A1000128842F008021A801A46128842F4C04214
:102A20001A801A46128842F400621A800D4A0C3A43
:102A3000128842F001020B4B0C3B1A801A46128896
:102A400042F010021A808022064B2C3B1A801A4654
:102A5000128842F001021A80704700000010024004
:102A6000000C01402C0800401D49098801F020019C
:102A700011B31B49091D0988C8B21A49098801F414
:102A80000041C9B91749098801F4804161B10A2898
:102A900003D00021134A118020E01249098841F433
:102AA0000041104A118019E00D2806D10D4909880E
:102AB00041F480410B4A118010E00A490988C1F3B2
:102AC0000D01094A505407490988491C054A1180DB
:102AD00011460988C72901DD0021118070470000D7
:102AE0000038014008000020C40100201349098873
:102AF00001F0200109B31149091D0988C8B2104924
:102B00000988C82913DA00210E4A91840C490988E2
:102B100021B91146098841F00101118008490A884C
:102B20000988491C064B19800749885405E0044967
:102B3000098841F40041024A118070470044004076
:102B400010000020001000408C02002070B50546E7
:102B50000C462748806940F00400254988612548D3
:102B6000006820F47F40234908600846006840F46C
:102B70000B4008601E48C06940F400301C49C86121
:102B80000846006940F4003008610846006920F4F6
:102B90000030086118486843B0FBF4F0174908801A
:102BA000081D008842F20C0108431449091D0880E1
:102BB0000846008840F4807008800846008840F08D
:102BC000200008800223262203211846FFF7E4FA9A
:102BD00041F61F416320FFF75BFE00200849088093
:102BE0000848008820F001000649088070BD0000F8
:102BF000001002400008014040420F00084400401D
:102C00001000002000100040490050EAC12018BF09
:102C100004204A0D18BF40F0010040F2FF72B2EBF1
:102C2000515F08BF40F00200012808BF052070472F
:102C300040F2013200204FF0E04100F078BF000088
:102C4000024A0020110700F072BF000001FDFFFFE3
:102C500010B50446D1E9000100F002F8206010BD73
:102C6000F8B504460D466A4600F096F800987E30A6
:102C7000009000281FDC002213462046294600F061
:102C8000DFFA18D0002140F608004FF00000064699
:102C90002046294600F08EFA044640F6080006EA6F
:102CA00000014FF0000034F0004004BF0220FDF7A7
:102CB000B9FB2046F8BD0098FF280DDB0220FDF788
:102CC000B1FB002213462046294600F085FB8CBF4D
:102CD00004484FF0FF40F8BD20462946BDE8F840C3
:102CE00000F068BA000080FF10B504460A46D4E937
:102CF0000003194600F07CF8C4E9000110BD30382B
:102D00000A2801D20120704700207047014600BF09
:102D1000704730B583B00446FDF77FFB05460020C1
:102D2000CDE90000024621466846FDF7BFFD284672
:102D3000FDF778FBDDE9000103B030BD4FF0E02185
:102D4000096921F004014FF0E0221161C21700EB84
:102D50005272C2F3C702074B1A701946097801EB89
:102D60004102C2EBC1114FF6FF7202EAC101024AF1
:102D700011807047000000200200002000BF054ABB
:102D8000128802F04002002AF9D0C2B2014B1B1D8A
:102D90001A8070470038014010B5144600222260A6
:102DA000114A21F000439342A8BF10BD53EA00022C
:102DB00008BF10BDB3F5801FA8BF226807DA36220E
:102DC00000F0B5FE6FF0350221F000432260DFF81D
:102DD0001CC06FF31E510CEB23531A4441F0FF51FA
:102DE00041F00051226010BD0000F07F02FCFFFFA7
:102DF0002DE9F04106460C4640F2FF75174635EACC
:102E000014502BD000221346304600F019FA25D07A
:102E10003A463046214600F08AFE06460C4635EA20
:102E2000145010D000221346304600F009FA15D194
:102E30000220FDF7F7FAFFF703FF0A46214662F387
:102E40001E01BDE8F0810220FDF7ECFAFFF7F0FE6D
:102E50000A46214662F31E01BDE8F0813046214654
:102E6000BDE8F081D6B000BF00BF00BF4FF496713F
:102E70000AA8FDF7A7FA0920FFF7C0FA4820FFF7D4
:102E80005DFFFEF7C1FFFFF7E1F9FFF723FDFFF755
:102E90006DF8FEF7D5FFFEF79BFF002141F2707041
:102EA000FFF798FD41F61F410A20FFF7E1FB48219B
:102EB0004FF6FF70FFF748FD4FF41641482000F031
:102EC000DFF84FF416412420FFF740FE00205D4953
:102ED0000880091D0880B3E05B48008800F40040CA
:102EE00000285FD058480088C0F30E060025AA4687
:102EF00000241EE05548005D2C280CD1002005EB75
:102F0000C50101EB05110AAA02EB810101F80A00D3
:102F10006D1C82460CE04D48025D05EBC50000EBE0
:102F200005100AA901EB800350460AF1010A1A5460
:102F3000641CB442DEDB0AA8FFF7EBFECDE9080112
:102F400000F038F9074623A8FFF7E3FECDE90801B2
:102F500000F030F980463CA8FFF7DBFECDE9080120
:102F600000F028F98146484600F06CFACDE90801E6
:102F7000404600F067FACDE90601384600F062FAF3
:102F8000CDE90401DDE90801CDE90201DDE9060131
:102F9000CDE900012EA0DDE90423FDF76BF9002047
:102FA000294908803149384600F0DCFC0BD84FF441
:102FB000166024490880091D0880FEF771FF04206F
:102FC0002B4908703CE02B49384600F0CBFB0BD86E
:102FD0004FF416601B490880091D0880FEF774FF36
:102FE0000520234908702BE02349404600F0BAFC35
:102FF0000BD840F6B83013490880091D0880FEF749
:1030000077FF02201A4908701AE01C49404600F078
:10301000A9FB0BD840F6B8300A490880091D088082
:10302000FEF72AFF03201249087009E00020054935
:103030000880091D0880FEF76FFF00200C4908700A
:103040004AE7000034080040100000208C020020F5
:1030500070697463683A256620726F6C6C3A2566F5
:10306000207961773A25660D0A00000000005C4275
:103070000A000020000082C20000F0410000F0C100
:103080002DE9F05F05460E46300100F057FB814602
:103090002E4905FB01F000F051FB8246494600F045
:1030A0006BFA0746384600F029FB84B2204600F050
:1030B00045FB8346394600F086FC82464FF083414B
:1030C00000F084FB814600F019FB80464FF6FF704C
:1030D00000EA041404EB080084B21D48806940F043
:1030E00004001B4988610846806940F4804088617B
:1030F0001848006820F47F60164908600846006898
:1031000040F40B6008601248C06840F480401049E9
:10311000C8600846C06820F48040C8600E4804803B
:10312000001D008842F20C0108430B49091D08806C
:103130000846008840F02000088002232522032151
:103140000846FFF729F8BDE8F09F000040420F0055
:1031500000100240040801400838014010B5002961
:103160000AD00878002807D005487844FDF79AFF70
:10317000002801D0002010BD0248784410BD000096
:103180002A0B0000220B000010B500290AD0087895
:10319000002807D005487844FDF784FF002801D0B7
:1031A000002010BD0248784410BD00001A0B00003A
:1031B000120B000021F00042A2F16052B2F5801F14
:1031C00001F0004328BFD2F17F6C0BD95FEA001CED
:1031D00043EAC20242EB507018BF704728BF20F08C
:1031E00001007047B2F5801FBCBF184670474FEA18
:1031F000410C1CF5001F02D2084600F0AEBB70B5B2
:1032000000F096F800000089FFF7F6BF4FF000408D
:10321000A0F580007047000002494FF0000000F068
:1032200054BC00BF0000F87F491058BFC1F14041B5
:103230005B1058BFC3F140438B42EFF300807047EF
:1032400051EA030C17D41CF5801F58BFBCF5801F32
:1032500000F10680994218BF704708BF904270473E
:1032600007D711F5801F58BF13F5801F19D4994255
:103270007047894270471CF5801F08D5BCF5801F38
:10328000F7D58B4218BF704708BF824270474FF492
:10329000001C1CEB410F38BF1CEB430F01D28B42CB
:1032A000704770B500F044F8922449004FF0005187
:1032B0004FF08053FFF7B8BF51EA030C17D41CF549
:1032C000801F58BFBCF5801F00F10680994218BFCF
:1032D000704708BF9042704707D711F5801F58BF4D
:1032E00013F5801F19D499427047894270471CF525
:1032F000801F08D5BCF5801FF7D58B4218BF7047DB
:1033000008BF824270474FF4001C1CEB410F38BFCE
:103310001CEB430F01D28B42704770B500F008F8E8
:10332000922449004FF000514FF08053FFF77CBFCB
:103330000EF1020E2EF0030E5EF8046B364205D439
:10334000012A43EB030515F5001F12D8012841EBB4
:10335000010C1CF5001F0CD80ED14FEAD17C15F5DD
:10336000001F0CEB4C0C0CF1020C08BF4CEBD37C97
:1033700004E04FF0080C01E04FEAD37C0CEB4C0565
:1033800026FA05F606F00706B6F1040C06D20EEB97
:10339000860CBDE870404CF0010C6047DFE80CF093
:1033A000090B02024FF000414FF00000A1F500218F
:1033B00070BD19461046012851EB010418BFD4F521
:1033C000001484BF002001F0004170BD0808A0F582
:1033D00000114FEA3101704753EA010C17D41CF574
:1033E000801F58BFBCF5801F00F106808B4218BFBC
:1033F000704708BF8242704707D713F5801F58BF38
:1034000011F5801F19D48B4270479B4270471CF501
:10341000801F08D5BCF5801FF7D5994218BF7047AB
:1034200008BF904270474FF4001C1CEB430F38BF9D
:103430001CEB410F01D2994270470FB40CBC03BC86
:10344000FFF76BBF43004FEAD30C4FEA3C0C4340FD
:103450001FBF40070CF1605113F0FE4F70471CF086
:10346000006F03D100200CF0004170470CF00043C6
:1034700043EA507010B540EACC0000F028FA00BFD3
:10348000000000924FEA0001FFF7A0BF4FF000419B
:103490004FF00000A1F500217047000090EA010FF5
:1034A00048BF81F0004100F1A082421A3CBF801A5F
:1034B00089184FEAD0524FF07F4C1CEA410FA2EB23
:1034C000D15318BF9CEA026F00F03B804FF0004CD4
:1034D0004CEA00204CEA012121FA03FC10EB0C0C11
:1034E0001ED202F1FF325FEA1C2040EBC25038BF0F
:1034F00070471CF07F0F4FEA400C18BFBCF17F4FA4
:1035000038BF7047C3F12003994008BF20F0010085
:10351000BCF17F4F38BF7047A0F1C04000F01DBA2A
:103520004FEA3C00000A40EBC25028BF1CF0FF0FDE
:103530004FEA400CE6D018BFBCF17F4F38BF704750
:10354000EAE79CEA026F05D010EA5C0F08BF00F0C2
:103550000040704710B500F0BAF900BF64FBBE3EF2
:10356000401058BFC0F14040491058BFC1F1404120
:103570008142EFF3008070474FF47F0C1CEAD012B9
:103580001EBF1CEAD11392EA0C0F93EA0C0F00F055
:10359000858090EA010F48BF42F4807240F4000C2D
:1035A00041F400002CF07F4120F07F4000B58142C3
:1035B000A2EB03020FF2081CACEB504EC0F100006E
:1035C0009EF800E04FEA4E0E00FB0EFC38BF4900AB
:1035D0004FEA2C1C02F5FA020CFB0EF34FEACE1E4A
:1035E0004FEA112C4FEAC1210EEB635E42EB2242FF
:1035F0000EFB0CFC4FEA1C5300FB03114FEA112C8D
:103600004FEA01310EFB0CFC4FEADC4C00FB0C11C5
:10361000C14228BF09184CEB03335DF804EB10EBF3
:10362000410143EBC250B2F57C0F38BF704729D53A
:1036300012F0F00F1CBF00F1C04000F000407047D6
:10364000008182838485868788898B8C8D8E8F917B
:103650009293959697999A9C9D9FA0A2A3A5A7A89F
:10366000AAACAEB0B2B3B5B7B9BCBEC0C2C5C7C9CB
:10367000CCCED1D4D7D9DCDFE2E6E9ECF0F3F7FA2F
:10368000FE0000004FEA400C0CF1807CBCF17E4F44
:1036900028BF7047B0F1C04000F05FB990EA010F59
:1036A0000CEAD11348BF42F48072624538BF6345CB
:1036B00007D213F47F0F16D080EA010000F000401B
:1036C000704710B500F003F9097EFC3E00F005B824
:1036D00080EA010000F00040704780EA010000F03D
:1036E000004000F03AB912F47F0F04BF024870475F
:1036F00080EA010000F031B90000C07FC10DD1F1B6
:103700009E0206DB4FEA002343F0004323FA02F057
:103710007047004207D54FEA4001B1F1FE4F02D297
:103720004FF00000704710B500F0D1F849922480A6
:10373000002070476FEA200070470000B0FA80F365
:1037400010FA03F2C3F19D030AD0D90501EB122050
:10375000530638BF704700F1010008BF20F0010098
:103760007047000050EA010C00F113801CF5000FB7
:1037700058BFBCF5000F01D48842704707D710F539
:10378000000F58BF11F5000F15D4884270478942C9
:1037900070471CF5000F04D5BCF5000FF7D581422A
:1037A00070474FF0807C1CEB400F38BF1CEB410F83
:1037B00001D28142704710B500F089F89224490087
:1037C0004FF000504FF08051FFF7CABE4FF47F0C0E
:1037D0001CEAD0121EBF1CEAD11392EA0C0F93EA26
:1037E0000C0F00F0478090EA010F48BF42F480724E
:1037F0004FF0004C4CEA00204CEA012102EB03029E
:10380000A0FB0113A2F50002002918BF43F0010339
:103810005B0028BF4FEA330342EB22425FEA132CDE
:103820004CEBC2502EBFBCEB436FB2F57C0F704720
:103830004FEA036CBCF1004F08BF20F00100B2F565
:103840007C0F38BF70470BD582F0FF0212F5803F26
:10385000C8BF704700F1C040D8BF00F000407047BB
:1038600000F5000C5FEA4C0C48BF7047B0F1C04057
:1038700000F073B890EA010F0CEAD11348BF42F48C
:103880008072624538BF634504D280EA010000F0CF
:103890000040704710B500F01AF800BF8900013EE3
:1038A00000F007B800F009B85FEA410C5FEA1C6C51
:1038B00008D080EA010000F050B85FEA400C5FEAEF
:1038C0001C6CF6D14FF00040A0F5800070470EF15F
:1038D000020E2EF0030E5EF8044B244204D44FEA8D
:1038E0004102B2F17F4F11D84FEA4003B3F17F4F4D
:1038F0000CD80ED14FEAD07CB2F17F4F0CEB4C0CC0
:103900000CF1020C08BF4CEBD17C04E04FF0080C2A
:1039100001E04FEAD17C0CEB4C0324FA03F404F0F1
:103920000704B4F1040C06D20EEB840CBDE8104081
:103930004CF0010C6047DFE80CF0070802024FF082
:103940000040A0F5800010BD0846420018BFD2F12B
:10395000807288BF00F0004010BDFF2141EAD050C6
:10396000C005704751EA000C00F113801CF5000FF0
:1039700058BFBCF5000F01D48142704707D711F53D
:10398000000F58BF10F5000F15D4814270478942CF
:1039900070471CF5000F04D5BCF5000FF7D5884221
:1039A00070474FF0807C1CEB410F38BF1CEB400F81
:1039B00001D28842704780EA010081EA000180EA72
:1039C0000100FFF7F8BE80F0004090EA010F7FF59C
:1039D0006CAD81F0004100F008B8000090EA010FE2
:1039E00048BF81F000413FF560AD421A04D882F033
:1039F0000042A0EB020011444FEAD0524FF07F4C3E
:103A00001CEA410FA2EBD15318BF9CEA026F4AD0C7
:103A10004FF0004C4CEA00204CEA012121FA03FC53
:103A2000B0EB0C0C0FD412F0FE0F36D05FEA4C0056
:103A30001DD5001240EBC25038BF70471CF03F0F3D
:103A400018BF70470BE0A2F101025FEA1C2040EBB7
:103A5000C25038BF70471CF07F0F18BF7047C3F1CA
:103A60002003994014BF401E20F0010070478008D9
:103A70004FEA122308BF7047B0FA80FCA2EB0C0299
:103A8000CCF1280C60FA0CF093EA122F04BF00EB83
:103A9000C25070474FEAC3707047130A5FEADC10E8
:103AA00008BF7047F6E79CEA026F04D010EA5C0F8B
:103AB00008BF0020704710B5FFF709FF40DFF63E52
:103AC00081F000407047FCF78ABD0CF00F03092B12
:103AD00008BF082000F05F800A2B0BD0082B18BF0E
:103AE000704708BF1CF0400F0AD04FF000004FF0A5
:103AF000000170471CF0400F18BF4FF000407047A6
:103B00001CF0100F08D020F0704300F07F4242EA12
:103B1000D3014FEA4370704700F0604021F07F42CC
:103B200042EA000201F07F4040EA727070474FF0B5
:103B3000FF0C4CF4E06C1CEA11531CBF9CEA030C14
:103B40009445C2BFDA4201EB02517047002B0DD001
:103B5000BCF1000F0FD0002A01F00041A4BF41F0DA
:103B6000E04141F07F614FF00000704701F00041FB
:103B70004FF00000704750EA01334FF09B0C18BF24
:103B80004CF0806C7FF448AB7047FDF731B9FDF71E
:103B9000C9BAFDF753BC1CF4801F11D01CF4E02FF0
:103BA00003D06FEACC31490070474FF04050EFF33B
:103BB000008222F0704242EA000282F300887047DD
:103BC0004FF00000704704000008000000000000F3
:103BD000000200010000100002400000000000A0F0
:103BE0000000000005400000000000C800000000C8
:103BF0000C4000000000409C000000001940000044
:103C00000020BCBE0000000034400000BFC91B8E75
:103C100000000004B5400000504BCFD06607E2CF53
:103C2000010000006C4100003E8251AADFEEA73483
:103C300001000000D9420000DCB5A0E23A301F9735
:103C4000FFFFFFFFB4450000FD25A0C8E9A3C14F59
:103C5000FFFFFFFFFF3F00000000008000000000AA
:103C6000FF3F00000000008000000000C03D000891
:103C700000000020C40100006C0100082C3E000878
:103C8000C4010020F4070000C80100080000000083
:103C90000000F07F1C00000043000000F8FFFFFF61
:103CA0000C0000000E0000000F0000002E000000BD
:103CB0001001000043000000F8FFFFFF00404040FB
:103CC00040404040404041414141414040404040EF
:103CD000404040404040404040404040400502029B
:103CE000020202020202020202020202022020205A
:103CF00020202020202020020202020202029090B6
:103D000090909090101010101010101010101010B3
:103D10001010101010101010020202020202888807
:103D20008888888808080808080808080808080813
:103D300008080808080808080202020240000000FB
:103D40000000000000000000000000000000000073
:103D50000000000000000000000000000000000063
:103D60000000000000000000000000000000000053
:103D70000000000000000000000000000000000043
:103D80000000000000000000000000000000000033
:103D90000000000000000000000000000000000023
:103DA0000000000000000000000000000000000013
:103DB0000000000000000000000000000000000003
:103DC0000114320232043205320632073208320D53
:103DD000320E5A0910291829204132015A0338326B
:103DE000FF32E35ADF0432E75AFB040223C72930CB
:103DF00032DB32BD5A180C69045AC304A9142924B1
:103E0000292C290C293C32EF32CF32B05A7E0429BA
:103E10000C2914291C32F75AF3E06920290C2914C3
:0C3E2000291C29C0099A040110000000B0
:0400000508000131BD
:00000001FF
